{
  "contractName": "MerchantSubscription",
  "abi": [
    {
      "constant": false,
      "inputs": [],
      "name": "resume",
      "outputs": [],
      "payable": false,
      "stateMutability": "nonpayable",
      "type": "function"
    },
    {
      "constant": true,
      "inputs": [],
      "name": "name",
      "outputs": [
        {
          "name": "",
          "type": "string"
        }
      ],
      "payable": false,
      "stateMutability": "view",
      "type": "function"
    },
    {
      "constant": false,
      "inputs": [],
      "name": "activate",
      "outputs": [],
      "payable": false,
      "stateMutability": "nonpayable",
      "type": "function"
    },
    {
      "constant": true,
      "inputs": [],
      "name": "status",
      "outputs": [
        {
          "name": "isActive",
          "type": "bool"
        },
        {
          "name": "isClosed",
          "type": "bool"
        },
        {
          "name": "isPaused",
          "type": "bool"
        }
      ],
      "payable": false,
      "stateMutability": "view",
      "type": "function"
    },
    {
      "constant": false,
      "inputs": [],
      "name": "close",
      "outputs": [],
      "payable": false,
      "stateMutability": "nonpayable",
      "type": "function"
    },
    {
      "constant": false,
      "inputs": [],
      "name": "claimOwnership",
      "outputs": [],
      "payable": false,
      "stateMutability": "nonpayable",
      "type": "function"
    },
    {
      "constant": true,
      "inputs": [],
      "name": "version",
      "outputs": [
        {
          "name": "",
          "type": "string"
        }
      ],
      "payable": false,
      "stateMutability": "view",
      "type": "function"
    },
    {
      "constant": false,
      "inputs": [
        {
          "name": "withdrawalAmount",
          "type": "uint256"
        }
      ],
      "name": "withdrawal",
      "outputs": [],
      "payable": false,
      "stateMutability": "nonpayable",
      "type": "function"
    },
    {
      "constant": false,
      "inputs": [],
      "name": "pause",
      "outputs": [],
      "payable": false,
      "stateMutability": "nonpayable",
      "type": "function"
    },
    {
      "constant": true,
      "inputs": [],
      "name": "owner",
      "outputs": [
        {
          "name": "",
          "type": "address"
        }
      ],
      "payable": false,
      "stateMutability": "view",
      "type": "function"
    },
    {
      "constant": true,
      "inputs": [],
      "name": "merchant",
      "outputs": [
        {
          "name": "",
          "type": "address"
        }
      ],
      "payable": false,
      "stateMutability": "view",
      "type": "function"
    },
    {
      "constant": true,
      "inputs": [],
      "name": "amount",
      "outputs": [
        {
          "name": "",
          "type": "uint256"
        }
      ],
      "payable": false,
      "stateMutability": "view",
      "type": "function"
    },
    {
      "constant": true,
      "inputs": [],
      "name": "pendingOwner",
      "outputs": [
        {
          "name": "",
          "type": "address"
        }
      ],
      "payable": false,
      "stateMutability": "view",
      "type": "function"
    },
    {
      "constant": false,
      "inputs": [
        {
          "name": "newOwner",
          "type": "address"
        }
      ],
      "name": "transferOwnership",
      "outputs": [],
      "payable": false,
      "stateMutability": "nonpayable",
      "type": "function"
    },
    {
      "inputs": [
        {
          "name": "_merchant",
          "type": "address"
        },
        {
          "name": "_name",
          "type": "string"
        }
      ],
      "payable": false,
      "stateMutability": "nonpayable",
      "type": "constructor"
    },
    {
      "payable": true,
      "stateMutability": "payable",
      "type": "fallback"
    },
    {
      "anonymous": false,
      "inputs": [
        {
          "indexed": false,
          "name": "customer",
          "type": "address"
        },
        {
          "indexed": false,
          "name": "amount",
          "type": "uint256"
        }
      ],
      "name": "SubscriptionPaymentMade",
      "type": "event"
    },
    {
      "anonymous": false,
      "inputs": [
        {
          "indexed": false,
          "name": "merchant",
          "type": "address"
        },
        {
          "indexed": false,
          "name": "owner",
          "type": "address"
        },
        {
          "indexed": false,
          "name": "amount",
          "type": "uint256"
        }
      ],
      "name": "WithdrawalMade",
      "type": "event"
    },
    {
      "anonymous": false,
      "inputs": [
        {
          "indexed": false,
          "name": "to",
          "type": "address"
        }
      ],
      "name": "OwnerChanged",
      "type": "event"
    },
    {
      "anonymous": false,
      "inputs": [],
      "name": "SubscriptionPaused",
      "type": "event"
    },
    {
      "anonymous": false,
      "inputs": [],
      "name": "SubscriptionResumed",
      "type": "event"
    },
    {
      "anonymous": false,
      "inputs": [],
      "name": "SubscriptionClosed",
      "type": "event"
    },
    {
      "anonymous": false,
      "inputs": [],
      "name": "SubscriptionActivated",
      "type": "event"
    }
  ],
  "bytecode": "0x606060405260606040519081016040528060001515815260200160001515815260200160001515815250600360008201518160000160006101000a81548160ff02191690831515021790555060208201518160000160016101000a81548160ff02191690831515021790555060408201518160000160026101000a81548160ff021916908315150217905550505060006004556040805190810160405280600581526020017f312e302e33000000000000000000000000000000000000000000000000000000815250600690805190602001906100dd9291906101af565b5034156100e957600080fd5b6040516200110e3803806200110e83398101604052808051906020019091908051820191905050816000806101000a81548173ffffffffffffffffffffffffffffffffffffffff021916908373ffffffffffffffffffffffffffffffffffffffff16021790555033600160006101000a81548173ffffffffffffffffffffffffffffffffffffffff021916908373ffffffffffffffffffffffffffffffffffffffff16021790555080600590805190602001906101a79291906101af565b505050610254565b828054600181600116156101000203166002900490600052602060002090601f016020900481019282601f106101f057805160ff191683800117855561021e565b8280016001018555821561021e579182015b8281111561021d578251825591602001919060010190610202565b5b50905061022b919061022f565b5090565b61025191905b8082111561024d576000816000905550600101610235565b5090565b90565b610eaa80620002646000396000f3006060604052600436106100d0576000357c0100000000000000000000000000000000000000000000000000000000900463ffffffff168063046f7da2146101a557806306fdde03146101ba5780630f15f4c014610248578063200d2ed21461025d57806343d726d6146102a05780634e71e0c8146102b557806354fd4d50146102ca578063835fc6ca146103585780638456cb591461037b5780638da5cb5b14610390578063a5ff7651146103e5578063aa8c217c1461043a578063e30c397814610463578063f2fde38b146104b8575b600360000160019054906101000a900460ff161580156101005750600360000160029054906101000a900460ff16155b801561011b5750600360000160009054906101000a900460ff165b151561012657600080fd5b610132600454346104f1565b6004819055507faff3d07aae8b2a856e8f9a44d67665913403ebe260bfcd5c4502b20c0be168943334604051808373ffffffffffffffffffffffffffffffffffffffff1673ffffffffffffffffffffffffffffffffffffffff1681526020018281526020019250505060405180910390a1005b34156101b057600080fd5b6101b861050f565b005b34156101c557600080fd5b6101cd6105d5565b6040518080602001828103825283818151815260200191508051906020019080838360005b8381101561020d5780820151818401526020810190506101f2565b50505050905090810190601f16801561023a5780820380516001836020036101000a031916815260200191505b509250505060405180910390f35b341561025357600080fd5b61025b610673565b005b341561026857600080fd5b610270610739565b60405180841515151581526020018315151515815260200182151515158152602001935050505060405180910390f35b34156102ab57600080fd5b6102b3610778565b005b34156102c057600080fd5b6102c861083f565b005b34156102d557600080fd5b6102dd6109c7565b6040518080602001828103825283818151815260200191508051906020019080838360005b8381101561031d578082015181840152602081019050610302565b50505050905090810190601f16801561034a5780820380516001836020036101000a031916815260200191505b509250505060405180910390f35b341561036357600080fd5b6103796004808035906020019091905050610a65565b005b341561038657600080fd5b61038e610c2a565b005b341561039b57600080fd5b6103a3610cf1565b604051808273ffffffffffffffffffffffffffffffffffffffff1673ffffffffffffffffffffffffffffffffffffffff16815260200191505060405180910390f35b34156103f057600080fd5b6103f8610d17565b604051808273ffffffffffffffffffffffffffffffffffffffff1673ffffffffffffffffffffffffffffffffffffffff16815260200191505060405180910390f35b341561044557600080fd5b61044d610d3c565b6040518082815260200191505060405180910390f35b341561046e57600080fd5b610476610d42565b604051808273ffffffffffffffffffffffffffffffffffffffff1673ffffffffffffffffffffffffffffffffffffffff16815260200191505060405180910390f35b34156104c357600080fd5b6104ef600480803573ffffffffffffffffffffffffffffffffffffffff16906020019091905050610d68565b005b600080828401905083811015151561050557fe5b8091505092915050565b600160009054906101000a900473ffffffffffffffffffffffffffffffffffffffff1673ffffffffffffffffffffffffffffffffffffffff163373ffffffffffffffffffffffffffffffffffffffff1614151561056b57600080fd5b600360000160029054906101000a900460ff16151561058957600080fd5b6000600360000160026101000a81548160ff0219169083151502179055507f48aa625d29e0e856e6d6b90c6ea32629f993814c937e521c31dd273d802ab9cc60405160405180910390a1565b60058054600181600116156101000203166002900480601f01602080910402602001604051908101604052809291908181526020018280546001816001161561010002031660029004801561066b5780601f106106405761010080835404028352916020019161066b565b820191906000526020600020905b81548152906001019060200180831161064e57829003601f168201915b505050505081565b6000809054906101000a900473ffffffffffffffffffffffffffffffffffffffff1673ffffffffffffffffffffffffffffffffffffffff163373ffffffffffffffffffffffffffffffffffffffff161415156106ce57600080fd5b600360000160009054906101000a900460ff161515156106ed57600080fd5b6001600360000160006101000a81548160ff0219169083151502179055507f7825b43ee9da11ff0a830412a13ed5f78b54902de99ca8a291056b2b7f847dba60405160405180910390a1565b60038060000160009054906101000a900460ff16908060000160019054906101000a900460ff16908060000160029054906101000a900460ff16905083565b600160009054906101000a900473ffffffffffffffffffffffffffffffffffffffff1673ffffffffffffffffffffffffffffffffffffffff163373ffffffffffffffffffffffffffffffffffffffff161415156107d457600080fd5b600360000160019054906101000a900460ff161515156107f357600080fd5b6001600360000160016101000a81548160ff0219169083151502179055507f367c9ff3d318b90fdb50c3371bc4ced22d057c73730f3d98a0895b0c11ad57ab60405160405180910390a1565b600260009054906101000a900473ffffffffffffffffffffffffffffffffffffffff1673ffffffffffffffffffffffffffffffffffffffff163373ffffffffffffffffffffffffffffffffffffffff1614151561089b57600080fd5b600260009054906101000a900473ffffffffffffffffffffffffffffffffffffffff16600160006101000a81548173ffffffffffffffffffffffffffffffffffffffff021916908373ffffffffffffffffffffffffffffffffffffffff1602179055506000600260006101000a81548173ffffffffffffffffffffffffffffffffffffffff021916908373ffffffffffffffffffffffffffffffffffffffff1602179055507fa2ea9883a321a3e97b8266c2b078bfeec6d50c711ed71f874a90d500ae2eaf36600160009054906101000a900473ffffffffffffffffffffffffffffffffffffffff16604051808273ffffffffffffffffffffffffffffffffffffffff1673ffffffffffffffffffffffffffffffffffffffff16815260200191505060405180910390a1565b60068054600181600116156101000203166002900480601f016020809104026020016040519081016040528092919081815260200182805460018160011615610100020316600290048015610a5d5780601f10610a3257610100808354040283529160200191610a5d565b820191906000526020600020905b815481529060010190602001808311610a4057829003601f168201915b505050505081565b600160009054906101000a900473ffffffffffffffffffffffffffffffffffffffff1673ffffffffffffffffffffffffffffffffffffffff163373ffffffffffffffffffffffffffffffffffffffff16141515610ac157600080fd5b6004548111151515610ad257600080fd5b610ade60045482610e65565b6004819055506000809054906101000a900473ffffffffffffffffffffffffffffffffffffffff1673ffffffffffffffffffffffffffffffffffffffff166108fc829081150290604051600060405180830381858888f193505050501515610b4557600080fd5b7f26aabd0b187d03562b9e52195f1ff57274164c7fd5588254b7654cc27dde2b006000809054906101000a900473ffffffffffffffffffffffffffffffffffffffff16600160009054906101000a900473ffffffffffffffffffffffffffffffffffffffff1683604051808473ffffffffffffffffffffffffffffffffffffffff1673ffffffffffffffffffffffffffffffffffffffff1681526020018373ffffffffffffffffffffffffffffffffffffffff1673ffffffffffffffffffffffffffffffffffffffff168152602001828152602001935050505060405180910390a150565b600160009054906101000a900473ffffffffffffffffffffffffffffffffffffffff1673ffffffffffffffffffffffffffffffffffffffff163373ffffffffffffffffffffffffffffffffffffffff16141515610c8657600080fd5b600360000160029054906101000a900460ff16151515610ca557600080fd5b6001600360000160026101000a81548160ff0219169083151502179055507ffdb366b75754c17165fd4325d9bce6d9085d831f806eda20e31bcccccbceb4a960405160405180910390a1565b600160009054906101000a900473ffffffffffffffffffffffffffffffffffffffff1681565b6000809054906101000a900473ffffffffffffffffffffffffffffffffffffffff1681565b60045481565b600260009054906101000a900473ffffffffffffffffffffffffffffffffffffffff1681565b600160009054906101000a900473ffffffffffffffffffffffffffffffffffffffff1673ffffffffffffffffffffffffffffffffffffffff163373ffffffffffffffffffffffffffffffffffffffff16141515610dc457600080fd5b600160009054906101000a900473ffffffffffffffffffffffffffffffffffffffff1673ffffffffffffffffffffffffffffffffffffffff168173ffffffffffffffffffffffffffffffffffffffff1614151515610e2157600080fd5b80600260006101000a81548173ffffffffffffffffffffffffffffffffffffffff021916908373ffffffffffffffffffffffffffffffffffffffff16021790555050565b6000828211151515610e7357fe5b8183039050929150505600a165627a7a723058204fc494b403e5eee56a4d26cbd46a4b31ec79c30cc4946a57198a11fba7f34e870029",
  "source": "pragma solidity ^0.4.18;\n\nimport \"node_modules/zeppelin-solidity/contracts/math/SafeMath.sol\";\n\ncontract MerchantSubscription {\n\tstruct Status {\n\tbool isActive;\n\tbool isClosed;\n\tbool isPaused;\n\t}\n\n\t/* DATA */\n\n\taddress public merchant;\n\n\taddress public owner;\n\n\taddress public pendingOwner;\n\n\tStatus public status = Status(false, false, false);\n\n\tuint public amount = 0;\n\n\tstring public name;\n\n\tstring public version = '1.0.3';\n\n\n\t/* EVENTS */\n\n\tevent SubscriptionPaymentMade(address customer, uint amount);\n\n\tevent WithdrawalMade(address merchant, address owner, uint amount);\n\n\tevent OwnerChanged(address to);\n\n\tevent SubscriptionPaused();\n\n\tevent SubscriptionResumed();\n\n\tevent SubscriptionClosed();\n\n\tevent SubscriptionActivated();\n\n\t/* MODIFIERS */\n\n\tmodifier onlyOwner {\n\t\trequire(msg.sender == owner);\n\t\t_;\n\t}\n\n\tmodifier onlyPendingOwner {\n\t\trequire(msg.sender == pendingOwner);\n\t\t_;\n\t}\n\n\tmodifier onlyMerchant {\n\t\trequire(msg.sender == merchant);\n\t\t_;\n\t}\n\n\tmodifier allowDeposit {\n\t\trequire(!status.isClosed && !status.isPaused && status.isActive);\n\t\t_;\n\t}\n\n\t/* FUNCTIONS */\n\n\t/* constructor - setup merchant address */\n\tfunction MerchantSubscription(address _merchant, string _name) public {\n\t\tmerchant = _merchant;\n\t\towner = msg.sender;\n\t\tname = _name;\n\t}\n\n\t/* function that is called whenever anyone sends funds to a contract */\n\tfunction() allowDeposit payable public {\n\t\tamount = SafeMath.add(amount, msg.value);\n\n\t\tSubscriptionPaymentMade(msg.sender, msg.value);\n\t}\n\n\tfunction withdrawal(uint withdrawalAmount) onlyOwner public {\n\t\trequire(withdrawalAmount <= amount);\n\n\t\tamount = SafeMath.sub(amount, withdrawalAmount);\n\n\t\tmerchant.transfer(withdrawalAmount);\n\n\t\tWithdrawalMade(merchant, owner, withdrawalAmount);\n\t}\n\n\tfunction activate() onlyMerchant public {\n\t\trequire(!status.isActive);\n\n\t\tstatus.isActive = true;\n\n\t\tSubscriptionActivated();\n\t}\n\n\tfunction pause() onlyOwner public {\n\t\trequire(!status.isPaused);\n\n\t\tstatus.isPaused = true;\n\n\t\tSubscriptionPaused();\n\t}\n\n\tfunction resume() onlyOwner public {\n\t\trequire(status.isPaused);\n\n\t\tstatus.isPaused = false;\n\n\t\tSubscriptionResumed();\n\t}\n\n\tfunction close() onlyOwner public {\n\t\trequire(!status.isClosed);\n\n\t\tstatus.isClosed = true;\n\n\t\tSubscriptionClosed();\n\t}\n\n\tfunction transferOwnership(address newOwner) onlyOwner public {\n\t\trequire(newOwner != owner);\n\n\t\tpendingOwner = newOwner;\n\t}\n\n\tfunction claimOwnership() onlyPendingOwner public {\n\t\towner = pendingOwner;\n\t\tpendingOwner = 0x0;\n\n\t\tOwnerChanged(owner);\n\t}\n}\n",
  "sourcePath": "/Users/kornel/Projects/LD/coinfix.io-smart-contracts/contracts/MerchantSubscription.sol",
  "compiler": {
    "name": "solc",
    "version": "0.4.18+commit.9cf6e910.Emscripten.clang"
  },
  "schemaVersion": "1.0.1",
  "updatedAt": "2018-01-08T10:32:12.876Z"
}